{
  "contractName": "DocumentRegistry",
  "abi": [
    {
      "inputs": [
        {
          "internalType": "address",
          "name": "",
          "type": "address"
        }
      ],
      "name": "patients",
      "outputs": [
        {
          "internalType": "string",
          "name": "name",
          "type": "string"
        },
        {
          "internalType": "uint256",
          "name": "age",
          "type": "uint256"
        },
        {
          "internalType": "string",
          "name": "gender",
          "type": "string"
        },
        {
          "internalType": "address",
          "name": "patientAddress",
          "type": "address"
        }
      ],
      "stateMutability": "view",
      "type": "function",
      "constant": true
    },
    {
      "inputs": [
        {
          "internalType": "string",
          "name": "_name",
          "type": "string"
        },
        {
          "internalType": "uint256",
          "name": "_age",
          "type": "uint256"
        },
        {
          "internalType": "string",
          "name": "_gender",
          "type": "string"
        }
      ],
      "name": "addPatient",
      "outputs": [],
      "stateMutability": "nonpayable",
      "type": "function"
    },
    {
      "inputs": [
        {
          "internalType": "string",
          "name": "_document",
          "type": "string"
        }
      ],
      "name": "addDocument",
      "outputs": [],
      "stateMutability": "nonpayable",
      "type": "function"
    },
    {
      "inputs": [],
      "name": "getPatientInfo",
      "outputs": [
        {
          "internalType": "string",
          "name": "",
          "type": "string"
        },
        {
          "internalType": "uint256",
          "name": "",
          "type": "uint256"
        },
        {
          "internalType": "string",
          "name": "",
          "type": "string"
        },
        {
          "internalType": "string[]",
          "name": "",
          "type": "string[]"
        }
      ],
      "stateMutability": "view",
      "type": "function",
      "constant": true
    }
  ],
  "bytecode": "0x608060405234801561001057600080fd5b50611093806100206000396000f3fe608060405234801561001057600080fd5b506004361061004c5760003560e01c80630869cfbc14610051578063326df66414610084578063d65da44a146100a5578063f740e045146100c1575b600080fd5b61006b60048036038101906100669190610998565b6100dd565b60405161007b9493929190610c3e565b60405180910390f35b61008c61023d565b60405161009c9493929190610c91565b60405180910390f35b6100bf60048036038101906100ba9190610a0e565b610491565b005b6100db60048036038101906100d691906109c5565b6106d5565b005b600060205280600052604060002060009150905080600001805461010090610ea5565b80601f016020809104026020016040519081016040528092919081815260200182805461012c90610ea5565b80156101795780601f1061014e57610100808354040283529160200191610179565b820191906000526020600020905b81548152906001019060200180831161015c57829003601f168201915b50505050509080600101549080600201805461019490610ea5565b80601f01602080910402602001604051908101604052809291908181526020018280546101c090610ea5565b801561020d5780601f106101e25761010080835404028352916020019161020d565b820191906000526020600020905b8154815290600101906020018083116101f057829003601f168201915b5050505050908060030160009054906101000a900473ffffffffffffffffffffffffffffffffffffffff16905084565b6060600060608060008060003373ffffffffffffffffffffffffffffffffffffffff1673ffffffffffffffffffffffffffffffffffffffff168152602001908152602001600020905080600001816001015482600201836004018380546102a390610ea5565b80601f01602080910402602001604051908101604052809291908181526020018280546102cf90610ea5565b801561031c5780601f106102f15761010080835404028352916020019161031c565b820191906000526020600020905b8154815290600101906020018083116102ff57829003601f168201915b5050505050935081805461032f90610ea5565b80601f016020809104026020016040519081016040528092919081815260200182805461035b90610ea5565b80156103a85780601f1061037d576101008083540402835291602001916103a8565b820191906000526020600020905b81548152906001019060200180831161038b57829003601f168201915b5050505050915080805480602002602001604051908101604052809291908181526020016000905b8282101561047c5783829060005260206000200180546103ef90610ea5565b80601f016020809104026020016040519081016040528092919081815260200182805461041b90610ea5565b80156104685780601f1061043d57610100808354040283529160200191610468565b820191906000526020600020905b81548152906001019060200180831161044b57829003601f168201915b5050505050815260200190600101906103d0565b50505050905094509450945094505090919293565b60008351116104d5576040517f08c379a00000000000000000000000000000000000000000000000000000000081526004016104cc90610d0b565b60405180910390fd5b60008211610518576040517f08c379a000000000000000000000000000000000000000000000000000000000815260040161050f90610ceb565b60405180910390fd5b600081511161055c576040517f08c379a000000000000000000000000000000000000000000000000000000000815260040161055390610d2b565b60405180910390fd5b6040518060a001604052808481526020018381526020018281526020013373ffffffffffffffffffffffffffffffffffffffff168152602001600067ffffffffffffffff8111156105b0576105af610f37565b5b6040519080825280602002602001820160405280156105e357816020015b60608152602001906001900390816105ce5790505b508152506000803373ffffffffffffffffffffffffffffffffffffffff1673ffffffffffffffffffffffffffffffffffffffff1681526020019081526020016000206000820151816000019080519060200190610641929190610797565b50602082015181600101556040820151816002019080519060200190610668929190610797565b5060608201518160030160006101000a81548173ffffffffffffffffffffffffffffffffffffffff021916908373ffffffffffffffffffffffffffffffffffffffff16021790555060808201518160040190805190602001906106cc92919061081d565b50905050505050565b6000815111610719576040517f08c379a000000000000000000000000000000000000000000000000000000000815260040161071090610d4b565b60405180910390fd5b6000803373ffffffffffffffffffffffffffffffffffffffff1673ffffffffffffffffffffffffffffffffffffffff16815260200190815260200160002060040181908060018154018082558091505060019003906000526020600020016000909190919091509080519060200190610793929190610797565b5050565b8280546107a390610ea5565b90600052602060002090601f0160209004810192826107c5576000855561080c565b82601f106107de57805160ff191683800117855561080c565b8280016001018555821561080c579182015b8281111561080b5782518255916020019190600101906107f0565b5b509050610819919061087d565b5090565b82805482825590600052602060002090810192821561086c579160200282015b8281111561086b57825182908051906020019061085b929190610797565b509160200191906001019061083d565b5b509050610879919061089a565b5090565b5b8082111561089657600081600090555060010161087e565b5090565b5b808211156108ba57600081816108b191906108be565b5060010161089b565b5090565b5080546108ca90610ea5565b6000825580601f106108dc57506108fb565b601f0160209004906000526020600020908101906108fa919061087d565b5b50565b600061091161090c84610d90565b610d6b565b90508281526020810184848401111561092d5761092c610f6b565b5b610938848285610e63565b509392505050565b60008135905061094f8161102f565b92915050565b600082601f83011261096a57610969610f66565b5b813561097a8482602086016108fe565b91505092915050565b60008135905061099281611046565b92915050565b6000602082840312156109ae576109ad610f75565b5b60006109bc84828501610940565b91505092915050565b6000602082840312156109db576109da610f75565b5b600082013567ffffffffffffffff8111156109f9576109f8610f70565b5b610a0584828501610955565b91505092915050565b600080600060608486031215610a2757610a26610f75565b5b600084013567ffffffffffffffff811115610a4557610a44610f70565b5b610a5186828701610955565b9350506020610a6286828701610983565b925050604084013567ffffffffffffffff811115610a8357610a82610f70565b5b610a8f86828701610955565b9150509250925092565b6000610aa58383610b31565b905092915050565b610ab681610e27565b82525050565b6000610ac782610dd1565b610ad18185610df4565b935083602082028501610ae385610dc1565b8060005b85811015610b1f5784840389528151610b008582610a99565b9450610b0b83610de7565b925060208a01995050600181019050610ae7565b50829750879550505050505092915050565b6000610b3c82610ddc565b610b468185610e05565b9350610b56818560208601610e72565b610b5f81610f7a565b840191505092915050565b6000610b7582610ddc565b610b7f8185610e16565b9350610b8f818560208601610e72565b610b9881610f7a565b840191505092915050565b6000610bb0601a83610e16565b9150610bbb82610f8b565b602082019050919050565b6000610bd3601483610e16565b9150610bde82610fb4565b602082019050919050565b6000610bf6601683610e16565b9150610c0182610fdd565b602082019050919050565b6000610c19601883610e16565b9150610c2482611006565b602082019050919050565b610c3881610e59565b82525050565b60006080820190508181036000830152610c588187610b6a565b9050610c676020830186610c2f565b8181036040830152610c798185610b6a565b9050610c886060830184610aad565b95945050505050565b60006080820190508181036000830152610cab8187610b6a565b9050610cba6020830186610c2f565b8181036040830152610ccc8185610b6a565b90508181036060830152610ce08184610abc565b905095945050505050565b60006020820190508181036000830152610d0481610ba3565b9050919050565b60006020820190508181036000830152610d2481610bc6565b9050919050565b60006020820190508181036000830152610d4481610be9565b9050919050565b60006020820190508181036000830152610d6481610c0c565b9050919050565b6000610d75610d86565b9050610d818282610ed7565b919050565b6000604051905090565b600067ffffffffffffffff821115610dab57610daa610f37565b5b610db482610f7a565b9050602081019050919050565b6000819050602082019050919050565b600081519050919050565b600081519050919050565b6000602082019050919050565b600082825260208201905092915050565b600082825260208201905092915050565b600082825260208201905092915050565b6000610e3282610e39565b9050919050565b600073ffffffffffffffffffffffffffffffffffffffff82169050919050565b6000819050919050565b82818337600083830152505050565b60005b83811015610e90578082015181840152602081019050610e75565b83811115610e9f576000848401525b50505050565b60006002820490506001821680610ebd57607f821691505b60208210811415610ed157610ed0610f08565b5b50919050565b610ee082610f7a565b810181811067ffffffffffffffff82111715610eff57610efe610f37565b5b80604052505050565b7f4e487b7100000000000000000000000000000000000000000000000000000000600052602260045260246000fd5b7f4e487b7100000000000000000000000000000000000000000000000000000000600052604160045260246000fd5b600080fd5b600080fd5b600080fd5b600080fd5b6000601f19601f8301169050919050565b7f416765206d7573742062652067726561746572207468616e2030000000000000600082015250565b7f4e616d652063616e6e6f7420626520656d707479000000000000000000000000600082015250565b7f47656e6465722063616e6e6f7420626520656d70747900000000000000000000600082015250565b7f446f63756d656e742063616e6e6f7420626520656d7074790000000000000000600082015250565b61103881610e27565b811461104357600080fd5b50565b61104f81610e59565b811461105a57600080fd5b5056fea2646970667358221220bba3b875a099168ecf170c378adbff7138832148800f5f9f75f0b741ae6268dc64736f6c63430008060033",
  "immutableReferences": {},
  "source": "// SPDX-License-Identifier: MIT\r\npragma solidity ^0.8.0;\r\n\r\ncontract DocumentRegistry {\r\n    struct Patient {\r\n        string name;\r\n        uint256 age;\r\n        string gender;\r\n        address patientAddress;\r\n        string[] documents;\r\n    }\r\n\r\n    mapping(address => Patient) public patients;\r\n\r\n    function addPatient(string memory _name, uint256 _age, string memory _gender) external {\r\n        require(bytes(_name).length > 0, \"Name cannot be empty\");\r\n        require(_age > 0, \"Age must be greater than 0\");\r\n        require(bytes(_gender).length > 0, \"Gender cannot be empty\");\r\n        \r\n        patients[msg.sender] = Patient(_name, _age, _gender, msg.sender, new string[](0));\r\n    }\r\n\r\n    function addDocument(string memory _document) external {\r\n        require(bytes(_document).length > 0, \"Document cannot be empty\");\r\n        \r\n        patients[msg.sender].documents.push(_document);\r\n    }\r\n\r\n    function getPatientInfo() external view returns (string memory, uint256, string memory, string[] memory) {\r\n        Patient storage patient = patients[msg.sender];\r\n        return (patient.name, patient.age, patient.gender, patient.documents);\r\n    }\r\n}\r\n",
  "sourcePath": "C:\\Users\\minad\\OneDrive\\Desktop\\PUF\\contracts\\DocumentRegistry.sol",
  "compiler": {
    "name": "solc",
    "version": "0.8.6+commit.11564f7e.Emscripten.clang"
  },
  "schemaVersion": "3.4.16",
  "updatedAt": "2024-03-21T14:11:48.481Z",
  "networkType": "ethereum",
  "devdoc": {
    "kind": "dev",
    "methods": {},
    "version": 1
  },
  "userdoc": {
    "kind": "user",
    "methods": {},
    "version": 1
  }
}